:1000000034C0000057C0000055C0000053C00000BD
:1000100051C000004FC000004DC000004BC00000A8
:1000200049C0000047C0000045C0000043C00000B8
:1000300041C00000B4C100003DC000003BC0000052
:1000400046C2000037C00000F1C3000021C4000018
:1000500031C000002FC000002DC000002BC00000E8
:1000600029C0000027C000006D0411241FBECFEF7F
:10007000D8E0DEBFCDBF11E0A0E0B1E0E2EEF9E0F4
:1000800002C005900D92A431B107D9F721E0A4E197
:10009000B1E001C01D92AB3EB207E1F710E0C5E34D
:1000A000D0E003C02197FE0194D4C433D107D1F727
:1000B000D8D195C4A5CFDC01FB0180E09D919111C1
:1000C00003C09081913021F08F5F31968830B1F775
:1000D00008951F93CF93DF93CDB7DEB728970FB660
:1000E000F894DEBF0FBECDBF8091E201811135C013
:1000F00081E08093E20188E08093E30180E88093CF
:10010000E501E7ECF1E01192178681E0EF3CF8079A
:10011000D1F719821A821B821C821D821E821F82C5
:1001200018868091DF01811197C081E08093DF0103
:1001300086E08093E001EFEBF1E01192178681E019
:10014000E73CF807D1F728960FB6F894DEBF0FBE4C
:10015000CDBFDF91CF911F910895E091E301E15070
:10016000E93008F06DC0F0E0E954FF4F32C4C00040
:100170000901090189000F01130115010F010F0188
:100180001091E6018091E701811102C0111107C0B1
:1001900085E08093E30180E88093E501BACF19827E
:1001A0001A821B821C821D821E821F821886BE013B
:1001B0006F5F7F4F87ED91E07EDF883089F089E0C7
:1001C0008093E301E7ECF1E08081908989278193B6
:1001D000178681E0EF3CF807B9F71092E50199CF57
:1001E00011501093E60181E08093E3011092D70152
:1001F0001092D8011092D9011092DA011092DB010D
:100200001092DC011092DD011092DE011092E701E4
:1002100080CF8AE08093E3011092E4017ACF86E0F8
:100220008093E30176CF87E0FBCF8091E5018823BF
:1002300029F0803809F06DCF84E0F2CF83E0F0CF71
:100240008091E401853020F082E38093E601CBCFFA
:100250008F5F8093E4015DCFE091E001E150E830F1
:1002600008F08CC0F0E0EA5CFE4FB3C33E018201AF
:100270008201A300A300820169019B01BE016F5F9F
:100280007F4F8FEC91E017DF883091F01092E801FA
:1002900087E08093E001EFEBF1E027EC31E0808133
:1002A00090898927819317862E173F07C1F74BCF77
:1002B0001092CF011092D0011092D1011092D20170
:1002C0001092D3011092D4011092D5011092D60150
:1002D0003ACFBE016F5F7F4F8FEC91E0ECDE88304C
:1002E00069F0EFEBF1E027EC31E08081908989271C
:1002F000819317862E173F07C1F725CF9091E8010C
:10030000911104C081E08093E0011DCF8093E00152
:100310001092CF011092D0011092D1011092D2010F
:100320001092D3011092D4011092D5011092D601EF
:100330001092E10108CF1091E101133018F7BE01CE
:100340006F5F7F4F8FEC91E0B6DE883099F081E0EF
:100350008093E80187E08093E001EFEBF1E027EC88
:1003600031E0808190898927819317862E173F0776
:10037000C1F7E9CE1F5F1093E101E5CE84E0C3CF62
:10038000089540E855E260E070E090E080E000C051
:10039000892B21F426E082E291E0E8C108951F92C2
:1003A0000F920FB60F9211242F933F934F935F93A9
:1003B0006F937F938F939F93AF93BF93EF93FF932D
:1003C00087EF92EC909385008093840032D0FF9168
:1003D000EF91BF91AF919F918F917F916F915F91BD
:1003E0004F913F912F910F900FBE0F901F90189536
:1003F00087EF92EC9093850080938400AFE6B0E0A5
:100400008C918E7F8C93E0E8F0E080818C7F8083FC
:10041000E1E8F0E08081877E808380818560808351
:1004200080818D7F80838C9181608C93089581E0A1
:1004300008958091160191E0980F909316018823FA
:1004400049F021E030E030931801209317018093A8
:100450001601089578943DDEF8948091160181503C
:10046000F6CFCF93DF931092EA011092E90179D091
:1004700088DFC0910001D09101011982188280DFCC
:10048000F894B6DF2881398181E0232B09F080E0E0
:100490008093E901789478948091E901811106C0F4
:1004A000F89490E080E0DF91CF9108952881398120
:1004B00081E0232B09F480E08093EA019091EA0126
:1004C00081E0911180E08093E901B1DFE5CF1F92D7
:1004D0000F920FB60F9211242F933F938F939F93F8
:1004E000AF93BF9380911A0190911B01A0911C01C1
:1004F000B0911D013091190123E0230F2D3758F5DC
:100500000196A11DB11D2093190180931A019093AA
:100510001B01A0931C01B0931D0180911E019091BD
:100520001F01A0912001B09121010196A11DB11DD3
:1005300080931E0190931F01A0932001B09321018D
:10054000BF91AF919F918F913F912F910F900FBECF
:100550000F901F90189526E8230F0296A11DB11D3C
:10056000D2CF789484B5826084BD84B5816084BD27
:1005700085B5826085BD85B5816085BDEEE6F0E01C
:10058000808181608083E1E8F0E010828081826078
:100590008083808181608083E0E8F0E080818160F9
:1005A0008083E1EBF0E0808184608083E0EBF0E029
:1005B000808181608083EAE7F0E0808184608083CD
:1005C0008081826080838081816080838081806877
:1005D00080831092C1000895FC01918D228D892F96
:1005E00090E0805C9F4F821B91098F73992708953B
:1005F000FC01918D828D981731F0828DE80FF11DED
:10060000858D90E008958FEF9FEF0895FC01918D07
:10061000828D981761F0A28DAE0FBF2FB11D5D9630
:100620008C91928D9F5F9F73928F90E008958FEFD2
:100630009FEF0895FC01538D448D252F30E0842FCA
:1006400090E0821B930B541710F0CF9608950197FA
:100650000895FC01A48DA80FB92FB11DA35ABF4F57
:100660002C91848D90E001968F739927848FA689B1
:10067000B7892C93A089B1898C91837080648C9305
:10068000938D848D981306C00288F389E02D8081B4
:100690008F7D80830895CF93DF93EC01888D88232D
:1006A000B1F0AA89BB89E889F9898C9185FD03C0DD
:1006B000808186FD0CC00FB607FCF7CF8C9185FFBB
:1006C000F2CF808185FFEDCFCE01C3DFEACFDF918E
:1006D000CF910895EF92FF920F931F93CF93DF93E3
:1006E000EC0181E0888F9B8D8C8D98131AC0E8896E
:1006F000F989808185FF15C09FB7F894EE89FF893D
:100700006083E889F98980818370806480839FBFDA
:1007100081E090E0DF91CF911F910F91FF90EF90DA
:100720000895F62E0B8D10E00F5F1F4F0F731127EA
:10073000E02E8C8D8E110BC00FB607FCFACFE88926
:10074000F989808185FFF5CFCE0183DFF2CFEB8D74
:10075000EC0FFD2FF11DE35AFF4FF0829FB7F89485
:100760000B8FEA89FB8980818062D0CFCF92DF92A4
:10077000EF92FF921F93CF93DF93EC016A017B010D
:10078000122FE889F98982E08083C11481EED806AE
:10079000E104F10499F060E079E08DE390E0A701D5
:1007A0009601F5D0215031094109510956954795D7
:1007B00037952795211580E1380790F0E889F98968
:1007C000108260E874E88EE190E0A7019601DFD026
:1007D000215031094109510956954795379527957B
:1007E000EC85FD853083EE85FF852083188EEC89AE
:1007F000FD891083EA89FB89808180618083EA8991
:10080000FB89808188608083EA89FB898081806898
:100810008083EA89FB8980818F7D8083DF91CF91FE
:100820001F91FF90EF90DF90CF9008951F920F924D
:100830000FB60F9211242F938F939F93EF93FF93F3
:10084000E0913201F09133018081E0913801F09123
:10085000390182FD1BC0908180913B018F5F8F73B6
:1008600020913C01821741F0E0913B01F0E0EE5D08
:10087000FE4F958F80933B01FF91EF919F918F9158
:100880002F910F900FBE0F901F9018958081F4CF7D
:100890001F920F920FB60F9211242F933F934F93F5
:1008A0005F936F937F938F939F93AF93BF93EF93D8
:1008B000FF9382E291E0CDDEFF91EF91BF91AF9186
:1008C0009F918F917F916F915F914F913F912F9168
:1008D0000F900FBE0F901F901895E2E2F1E0138287
:1008E000128288EE93E0A0E0B0E084839583A68333
:1008F000B78386E091E09183808385EC90E09587D3
:10090000848784EC90E09787868780EC90E0918BD9
:10091000808B81EC90E0938B828B82EC90E0958BC6
:10092000848B86EC90E0978B868B118E128E138EC3
:10093000148E0895AF92BF92CF92DF92EF92FF9202
:100940000F931F93CF93DF936C017B018B01040FF7
:10095000151FEB015E01AE18BF08C017D10759F093
:100960006991D601ED91FC910190F081E02DC601D5
:100970000995892B79F7C501DF91CF911F910F91CF
:10098000FF90EF90DF90CF90BF90AF900895A1E2DD
:100990001A2EAA1BBB1BFD010DC0AA1FBB1FEE1FF9
:1009A000FF1FA217B307E407F50720F0A21BB30B44
:1009B000E40BF50B661F771F881F991F1A9469F7C0
:1009C00060957095809590959B01AC01BD01CF011C
:1009D0000895EE0FFF1F0590F491E02D0994F8940F
:0209E000FFCF47
:1009E2001401000000006A039A041A034B03EC028C
:0409F2000603F802FE
:00000001FF
