:1000000034C0000057C0000055C0000053C00000BD
:1000100051C000004FC000004DC000004BC00000A8
:1000200049C0000047C0000045C0000043C00000B8
:1000300041C000005DC100003DC000003BC00000A9
:1000400017C3000037C00000C2C40000F2C40000A3
:1000500031C000002FC000002DC000002BC00000E8
:1000600029C0000027C000003E0511241FBECFEFAD
:10007000D8E0DEBFCDBF11E0A0E0B1E0E4E8FBE0F6
:1000800002C005900D92A231B107D9F721E0A2E19B
:10009000B1E001C01D92A73DB207E1F710E0C5E352
:1000A000D0E003C02197FE0165D5C433D107D1F755
:1000B00081D166C5A5CFCF92DF92EF92FF92C0901B
:1000C000C301D090C401E090C501F090C6018091B9
:1000D000CB0181111BC081E08093CB0180E090E0D7
:1000E000A0E8BFE38093CD019093CE01A093CF0110
:1000F000B093D001C092D101D092D201E092D3014D
:10010000F092D40182E08093CC015EC08091CC015A
:1001100020E030E048E452E4813009F05AC0C701E1
:10012000B601C6D187FF0FC020E030E048EC52E4B2
:100130006091BB017091BC018091BD019091BE01A5
:1001400030D218165CF220E030E048E452E4C701F7
:10015000B60127D218167CF020E030E048EC52E4DB
:100160006091BB017091BC018091BD019091BE0175
:100170009FD187FF29C080E090E0A0E8BFEB80938B
:10018000CD019093CE01A093CF01B093D0011092F6
:10019000D1011092D2011092D3011092D40120E02B
:1001A00030E040E85FE36091C7017091C801809141
:1001B000C9019091CA0117D16093C7017093C8011A
:1001C0008093C9019093CA01FF90EF90DF90CF9088
:1001D0000895C701B6016CD187FF40C020E030E030
:1001E00048EC52E46091BB017091BC018091BD016B
:1001F0009091BE01D6D118168CF580E090E0A0E871
:10020000BFE38093CD019093CE01A093CF01B09333
:10021000D00120E030E040E85EE3C701B601C5D17F
:100220006093D1017093D2018093D3019093D40154
:1002300020E030E040E85FE36091C7017091C801C1
:100240008091C9019091CA01CFD06093C70170938A
:10025000C8018093C9019093CA0154CF20E030E0D7
:1002600048E452E4C701B6019CD118167CF020E0A6
:1002700030E048EC52E46091BB017091BC01809188
:10028000BD019091BE0114D187FF9ECF80E090E028
:10029000A0E8BFEB8093CD019093CE01A093CF0156
:1002A000B093D0011092D1011092D2011092D301DB
:1002B0001092D40181E027CF80E090E0A0E8BFE376
:1002C0008093C7019093C801A093C901B093CA015C
:1002D0000895089540E855E260E070E090E080E025
:1002E00000C0892B21F426E08EE191E010C308952F
:1002F0001F920F920FB60F9211242F933F934F939B
:100300005F936F937F938F939F93AF93BF93EF937D
:10031000FF938BEC93EF909385008093840032D011
:10032000FF91EF91BF91AF919F918F917F916F91CD
:100330005F914F913F912F910F900FBE0F901F90A3
:1003400018958BEC93EF9093850080938400AFE633
:10035000B0E08C918E7F8C93E0E8F0E080818C7F20
:100360008083E1E8F0E08081877E80838081856002
:10037000808380818D7F80838C9181608C930895B0
:1003800081E008958091120191E0980F90931201FD
:10039000882349F021E030E03093140120931301C9
:1003A000809312010895789486DEF894809112016A
:1003B0008150F6CF1092D6011092D501A3D18ADFD9
:1003C0007BDFF894BEDF81E08093D5017894789448
:1003D0008091D501811105C07CDFF89490E080E028
:1003E0000895CEDFF5CF5058BB27AA270ED09FC067
:1003F00090D030F095D020F031F49F3F11F41EF4EE
:1004000085C00EF4E095E7FB7BC0E92FA1D080F317
:10041000BA17620773078407950718F071F49EF501
:10042000B9C00EF4E0950B2EBA2FA02D0B01B90127
:1004300090010C01CA01A0011124FF27591B99F05A
:10044000593F50F4503E68F11A16F040A22F232F66
:10045000342F4427585FF3CF469537952795A795B6
:10046000F0405395C9F77EF41F16BA0B620B730B5D
:10047000840BBAF09150A1F0FF0FBB1F661F771FCE
:10048000881FC2F70EC0BA0F621F731F841F48F483
:10049000879577956795B795F7959E3F08F0B3CF09
:1004A0009395880F08F09927EE0F979587950895F3
:1004B00003D008F481E00895990F0008550FAA0BA6
:1004C000E0E8FEEF16161706E807F907C0F0121667
:1004D0001306E407F50798F0621B730B840B950B6A
:1004E00039F40A2661F0232B242B252B21F40895BF
:1004F0000A2609F4A140A6958FEF811D811D08955C
:1005000097F99F6780E870E060E008959FEF80ECC6
:10051000089500240A941616170618060906089569
:1005200000240A9412161306140605060895092ECF
:100530000394000C11F4882352F0BB0F40F4BF2B3E
:1005400011F460FF04C06F5F7F4F8F4F9F4F08957E
:1005500057FD9058440F551F59F05F3F71F0479574
:10056000880F97FB991F61F09F3F79F08795089559
:10057000121613061406551FF2CF4695F1DF08C078
:10058000161617061806991FF1CF86957105610595
:1005900008940895E894BB2766277727CB0197F93D
:1005A00008958ADF08F48FEF08950BD0C0CFB1DF34
:1005B00028F0B6DF18F0952309F0A2CFA7CF1124B9
:1005C000EACFC6DFA0F3959FD1F3950F50E0551FFA
:1005D000629FF001729FBB27F00DB11D639FAA2798
:1005E000F00DB11DAA1F649F6627B00DA11D661FE7
:1005F000829F2227B00DA11D621F739FB00DA11D08
:10060000621F839FA00D611D221F749F3327A00DC1
:10061000611D231F849F600D211D822F762F6A2F5D
:1006200011249F5750408AF0E1F088234AF0EE0FE2
:10063000FF1FBB1F661F771F881F91505040A9F7EF
:100640009E3F510570F05CCFA6CF5F3FECF3983E24
:10065000DCF3869577956795B795F795E7959F5F56
:10066000C1F7FE2B880F911D9695879597F90895F0
:100670001F920F920FB60F9211242F933F938F93D7
:100680009F93AF93BF938091160190911701A09112
:100690001801B09119013091150123E0230F2D3776
:1006A00058F50196A11DB11D2093150180931601E7
:1006B00090931701A0931801B093190180911A012A
:1006C00090911B01A0911C01B0911D010196A11DEB
:1006D000B11D80931A0190931B01A0931C01B0934C
:1006E0001D01BF91AF919F918F913F912F910F90DD
:1006F0000FBE0F901F90189526E8230F0296A11D9C
:10070000B11DD2CF789484B5826084BD84B58160F8
:1007100084BD85B5826085BD85B5816085BDEEE609
:10072000F0E0808181608083E1E8F0E010828081E8
:1007300082608083808181608083E0E8F0E0808156
:1007400081608083E1EBF0E0808184608083E0EB76
:10075000F0E0808181608083EAE7F0E0808184605E
:1007600080838081826080838081816080838081BA
:10077000806880831092C1000895FC01918D228DC4
:10078000892F90E0805C9F4F821B91098F7399277E
:100790000895FC01918D828D981731F0828DE80FBC
:1007A000F11D858D90E008958FEF9FEF0895FC0176
:1007B000918D828D981761F0A28DAE0FBF2FB11D64
:1007C0005D968C91928D9F5F9F73928F90E00895BC
:1007D0008FEF9FEF0895FC01538D448D252F30E05E
:1007E000842F90E0821B930B541710F0CF9608953E
:1007F00001970895FC01A48DA80FB92FB11DA35A2C
:10080000BF4F2C91848D90E001968F739927848F30
:10081000A689B7892C93A089B1898C918370806453
:100820008C93938D848D981306C00288F389E02DF4
:1008300080818F7D80830895CF93DF93EC01888D35
:100840008823B1F0AA89BB89E889F9898C9185FD53
:1008500003C0808186FD0CC00FB607FCF7CF8C91DA
:1008600085FFF2CF808185FFEDCFCE01C3DFEACFD8
:10087000DF91CF910895EF92FF920F931F93CF9343
:10088000DF93EC0181E0888F9B8D8C8D98131AC0CB
:10089000E889F989808185FF15C09FB7F894EE89B2
:1008A000FF896083E889F98980818370806480830F
:1008B0009FBF81E090E0DF91CF911F910F91FF905A
:1008C000EF900895F62E0B8D10E00F5F1F4F0F7302
:1008D0001127E02E8C8D8E110BC00FB607FCFACFBE
:1008E000E889F989808185FFF5CFCE0183DFF2CFDA
:1008F000EB8DEC0FFD2FF11DE35AFF4FF0829FB7F8
:10090000F8940B8FEA89FB8980818062D0CFCF92E7
:10091000DF92EF92FF921F93CF93DF93EC016A0176
:100920007B01122FE889F98982E08083C11481EE6E
:10093000D806E104F10499F060E079E08DE390E0FD
:10094000A7019601F5D02150310941095109569569
:10095000479537952795211580E1380790F0E8896C
:10096000F989108260E874E88EE190E0A7019601B1
:10097000DFD02150310941095109569547953795E6
:100980002795EC85FD853083EE85FF852083188EC5
:10099000EC89FD891083EA89FB89808180618083ED
:1009A000EA89FB89808188608083EA89FB8980816C
:1009B00080688083EA89FB8980818F7D8083DF91D5
:1009C000CF911F91FF90EF90DF90CF9008951F92ED
:1009D0000F920FB60F9211242F938F939F93EF9343
:1009E000FF93E0912E01F0912F018081E09134017D
:1009F000F091350182FD1BC09081809137018F5F9E
:100A00008F7320913801821741F0E0913701F0E0B7
:100A1000E25EFE4F958F80933701FF91EF919F919A
:100A20008F912F910F900FBE0F901F90189580817E
:100A3000F4CF1F920F920FB60F9211242F933F9372
:100A40004F935F936F937F938F939F93AF93BF93D6
:100A5000EF93FF938EE191E0CDDEFF91EF91BF9197
:100A6000AF919F918F917F916F915F914F913F9146
:100A70002F910F900FBE0F901F901895EEE1F1E0AF
:100A80001382128288EE93E0A0E0B0E08483958325
:100A9000A683B78384E091E09183808385EC90E026
:100AA0009587848784EC90E09787868780EC90E038
:100AB000918B808B81EC90E0938B828B82EC90E029
:100AC000958B848B86EC90E0978B868B118E128EA3
:100AD000138E148E0895AF92BF92CF92DF92EF9251
:100AE000FF920F931F93CF93DF936C017B018B01D8
:100AF000040F151FEB015E01AE18BF08C017D10728
:100B000059F06991D601ED91FC910190F081E02DB1
:100B1000C6010995892B79F7C501DF91CF911F9106
:100B20000F91FF90EF90DF90CF90BF90AF9008951E
:100B3000A1E21A2EAA1BBB1BFD010DC0AA1FBB1FE1
:100B4000EE1FFF1FA217B307E407F50720F0A21B53
:100B5000B30BE40BF50B661F771F881F991F1A94C0
:100B600069F760957095809590959B01AC01BD01EA
:100B7000CF010895EE0FFF1F0590F491E02D099429
:040B8000F894FFCF17
:100B8400000000003B046B05EB031C04BD03D7030A
:020B9400C90393
:00000001FF
